{
    "contractName": "MyContract",
    "abi": [
        {
            "inputs": [],
            "name": "_data",
            "outputs": [
                {
                    "internalType": "bytes",
                    "name": "",
                    "type": "bytes"
                }
            ],
            "stateMutability": "view",
            "type": "function"
        },
        {
            "inputs": [
                {
                    "internalType": "uint256",
                    "name": "",
                    "type": "uint256"
                }
            ],
            "name": "arr",
            "outputs": [
                {
                    "internalType": "uint256",
                    "name": "",
                    "type": "uint256"
                }
            ],
            "stateMutability": "view",
            "type": "function"
        },
        {
            "inputs": [],
            "name": "data",
            "outputs": [
                {
                    "internalType": "bytes32",
                    "name": "",
                    "type": "bytes32"
                }
            ],
            "stateMutability": "view",
            "type": "function"
        },
        {
            "inputs": [],
            "name": "myAddr",
            "outputs": [
                {
                    "internalType": "address",
                    "name": "",
                    "type": "address"
                }
            ],
            "stateMutability": "view",
            "type": "function"
        },
        {
            "inputs": [],
            "name": "name",
            "outputs": [
                {
                    "internalType": "string",
                    "name": "",
                    "type": "string"
                }
            ],
            "stateMutability": "view",
            "type": "function"
        },
        {
            "inputs": [],
            "name": "state",
            "outputs": [
                {
                    "internalType": "bool",
                    "name": "",
                    "type": "bool"
                }
            ],
            "stateMutability": "view",
            "type": "function"
        },
        {
            "inputs": [
                {
                    "internalType": "uint256",
                    "name": "",
                    "type": "uint256"
                }
            ],
            "name": "users",
            "outputs": [
                {
                    "internalType": "string",
                    "name": "",
                    "type": "string"
                }
            ],
            "stateMutability": "view",
            "type": "function"
        },
        {
            "inputs": [],
            "name": "x",
            "outputs": [
                {
                    "internalType": "uint256",
                    "name": "",
                    "type": "uint256"
                }
            ],
            "stateMutability": "view",
            "type": "function"
        }
    ],
    "bytecode": "6000805460ff1916600190811790915560059055600280546001600160a01b03191673c6123d5a9c9c47b2a2b8b8c892697a39812ba50817905563185898d960e21b60035560c0604052601060808190526f5072616a77616c20416468696b61726960801b60a090815261007691600491906100df565b506040805180820190915260038082526232313560e81b60209092019182526100a1916005916100df565b5060408051606081018252600181526005602082015260039181018290526100cc9160069190610163565b503480156100d957600080fd5b506101f3565b8280546100eb906101b8565b90600052602060002090601f01602090048101928261010d5760008555610153565b82601f1061012657805160ff1916838001178555610153565b82800160010185558215610153579182015b82811115610153578251825591602001919060010190610138565b5061015f9291506101a3565b5090565b828054828255906000526020600020908101928215610153579160200282015b82811115610153578251829060ff16905591602001919060010190610183565b5b8082111561015f57600081556001016101a4565b600181811c908216806101cc57607f821691505b602082108114156101ed57634e487b7160e01b600052602260045260246000fd5b50919050565b610307806102026000396000f3fe608060405234801561001057600080fd5b50600436106100885760003560e01c806371e5ee5f1161005b57806371e5ee5f146100dd57806373d4a13a146100f0578063c19d93fb146100f9578063e665b2661461011657600080fd5b806306fdde031461008d5780630c55699c146100ab578063365b98b2146100c257806368beab3f146100d5575b600080fd5b610095610141565b6040516100a29190610263565b60405180910390f35b6100b460015481565b6040519081526020016100a2565b6100956100d036600461027d565b6101cf565b6100956101e8565b6100b46100eb36600461027d565b6101f5565b6100b460035481565b6000546101069060ff1681565b60405190151581526020016100a2565b600254610129906001600160a01b031681565b6040516001600160a01b0390911681526020016100a2565b6004805461014e90610296565b80601f016020809104026020016040519081016040528092919081815260200182805461017a90610296565b80156101c75780601f1061019c576101008083540402835291602001916101c7565b820191906000526020600020905b8154815290600101906020018083116101aa57829003601f168201915b505050505081565b6007602052600090815260409020805461014e90610296565b6005805461014e90610296565b6006818154811061020557600080fd5b600091825260209091200154905081565b6000815180845260005b8181101561023c57602081850181015186830182015201610220565b8181111561024e576000602083870101525b50601f01601f19169290920160200192915050565b6020815260006102766020830184610216565b9392505050565b60006020828403121561028f57600080fd5b5035919050565b600181811c908216806102aa57607f821691505b602082108114156102cb57634e487b7160e01b600052602260045260246000fd5b5091905056fea2646970667358221220966c003a6a681ec6a73999fdbbc7b14a9b446b296cfe39c4d510a40c29b9a82164736f6c634300080c0033",
    "sourcePath": "c:/Users/NEW IT WIZARD/Desktop/bc/EatTheBlocks/Solidity/Variables.sol",
    "compiler": {
        "name": "solc",
        "version": "0.8.12+commit.f00d7308"
    },
    "functionHashes": {
        "_data()": "68beab3f",
        "arr(uint256)": "71e5ee5f",
        "data()": "73d4a13a",
        "myAddr()": "e665b266",
        "name()": "06fdde03",
        "state()": "c19d93fb",
        "users(uint256)": "365b98b2",
        "x()": "0c55699c"
    },
    "gasEstimates": {
        "creation": {
            "codeDepositCost": "155000",
            "executionCost": "infinite",
            "totalCost": "infinite"
        },
        "external": {
            "_data()": "infinite",
            "arr(uint256)": "4575",
            "data()": "2317",
            "myAddr()": "2403",
            "name()": "infinite",
            "state()": "2354",
            "users(uint256)": "infinite",
            "x()": "2318"
        }
    }
}